:020000040800F2
:1000000098460020D9010008E1010008E30100083A
:10001000E5010008E7010008E90100080000000010
:100020000000000000000000000000003F31000858
:10003000ED010008000000003D31000841310008DA
:10004000F3010008F3010008F3010008F3010008C0
:10005000F3010008F3010008F3010008F3010008B0
:10006000F3010008F3010008F3010008F3010008A0
:10007000F3010008F3010008F3010008F301000890
:10008000F3010008CD070008F3010008F3010008A0
:10009000F3010008F3010008F3010008F301000870
:1000A000F3010008F3010008F3010008F301000860
:1000B00045320008513200085D320008F3010008A3
:1000C000F3010008F3010008F3010008F301000840
:1000D000F3010008F3010008F3010008F301000830
:1000E000F3010008F3010008F3010008F301000820
:1000F000F3010008F3010008F3010008D907000824
:10010000F3010008F3010008F3010008F3010008FF
:10011000F3010008F3010008F3010008F3010008EF
:10012000F3010008F3010008F3010008F3010008DF
:10013000F30100080000000000000000F3010008C7
:10014000F3010008F3010008F3010008F3010008BF
:10015000F3010008F3010008F3010008F3010008AF
:10016000F3010008F3010008F3010008F30100089F
:10017000F3010008F3010008F3010008000000008B
:1001800000000000F3010008000000000000000073
:10019000F30100080000000000000000F301000867
:1001A000000000000000000000000000F301000853
:1001B000F3010008F3010008F3010008F30100084F
:1001C000F3010008DFF80CD000F04CFA00480047BB
:1001D0000149000898460020064880470648004725
:1001E000FEE7FEE7FEE7FEE7FEE7FEE7FEE7FEE7E7
:1001F000FEE7FEE7F1310008C50100082DE9F05FD8
:100200000546002092469B46884606468146402485
:100210001BE0284641464746224600F058F8534620
:100220005A46C01A914110D311461846224600F092
:100230003FF82D1A67EB01084F46224601200021A6
:1002400000F036F817EB00094E41201EA4F101041E
:10025000DFDC484631462A464346BDE8F09F00F0C1
:10026000004230F000400AD0C10D01F56071C0F3CA
:10027000160042EA0151C2084007114370470020AE
:100280000146704730B50B4601460020202201246C
:1002900009E021FA02F59D4205D303FA02F5491B54
:1002A00004FA02F52844151EA2F10102F1DC30BD6A
:1002B000202A04DB203A00FA02F100207047914026
:1002C000C2F1200320FA03F3194390407047202A1B
:1002D00004DB203A21FA02F00021704721FA02F3F0
:1002E000D040C2F1200291400843194670472DE9E1
:1002F000FE4F804681EA0300C00F0C46009021F0BB
:10030000004123F00045B8EB0200A94105D2404668
:10031000214690461C460B46024623F000401043FF
:1003200047D0270DC7F30A00C3F30A510290401AC1
:10033000019040286BDAC3F3130040F4801B00984F
:10034000924620B10023D2EB030A63EB0B0B01981A
:100350005946C0F140025046FFF7AAFF06460D4637
:1003600050465946019A00F08FF910EB08006141A0
:10037000002487EA115284EAE7731A4340D0009AB6
:1003800062B3019A012A4FEA075215DC001B61EBA8
:1003900002014FF0004202EA0752CDE90042001C80
:1003A00041F5801132462B4600F08FF903B0BDE8CD
:1003B000F08F40462146F9E7001B61EB0201001C6B
:1003C00041F5801300185B412018A2F5001747EB98
:1003D000030140EAD570B6196D4111E06D084FEA8E
:1003E000360645EAC0754FEA0752001B61EB020171
:1003F000001C41F5801149084FEA300000195141B5
:1004000032462B4603B0BDE8F04F00F04FB90098DC
:10041000012240000023D0EB020263EBE07300985E
:1004200021464FEAE074B8EB000061EB0401E9E714
:1004300083F000435BE781F0004158E72DE9FE4F70
:1004400081EA030404F0004421F0004100944FF0DD
:10045000000B23F0004350EA01045ED052EA03048B
:100460005BD0C3F30A54C1F30A552C44A4F2F3340D
:100470000194A0FB0254C1F3130141F48011C3F3B2
:10048000130343F4801301FB024400FB034E840A70
:10049000970A44EA815447EA8357A4FB0768029508
:1004A0008D0A05FB07854FEA932C04FB0C542705A6
:1004B000029D4FEA065847EA1637B5EB08056EEB82
:1004C000070C870E920E47EA811742EA8312A7FBB8
:1004D0000201B6EB0B0164EB00042B0D43EA0C3375
:1004E0005E1844EB1C50DA465146E7FB0201C5F3A7
:1004F00013044FEA0B3343EA14534FEA0432019CCE
:1005000043EA0603A4F10C040294009CCDE900B474
:1005100000F0DBF803B0BDE8F08F00200146F9E7FA
:100520002DE9F04D81EA030404F0004B21F0004571
:1005300014464FF0000A23F0004150EA050220D093
:1005400054EA01021DD0C5F30A570246C5F313034E
:10055000C1F31300C1F30A5640F4801543F480132D
:10056000A7EB0608101BD64608F2FD3873EB050012
:1005700002D308F1010801E092185B41B8F1000FC5
:1005800003DA00200146BDE8F08D00204FF4801111
:10059000064684460EE0171B73EB050705D3121BB6
:1005A00063EB050306434CEA010C49084FEA3000AF
:1005B00092185B4150EA0107EDD152EA030012D0D4
:1005C00082EA040083EA0501084305D0101BAB4111
:1005D00006D20122002306E000224FF0004302E091
:1005E0006FF0010253101AEB06004CEB085110EBB0
:1005F0000A0041EB0B01BDE8F04D00F057B8C1F324
:100600000A52C1F3130140F2FF3341F480119A42C0
:1006100002DA00200146704740F233439A42A2F2C8
:10062000334202DC5242FFF752BEFFF741BE0000E8
:1006300030B5041E71F1000404DB4FF00044404269
:1006400064EB0101141E73F1000405DB1C464FF03E
:100650000043524263EB0403994208BF904230BD0D
:1006600000207047064C074D06E0E06840F00103AB
:1006700094E8070098471034AC42F6D3FFF7A6FD84
:10068000447D0008647D0008202A06DBCB17203A51
:1006900041FA02F043EAE07306E041FA02F3D04087
:1006A000C2F12002914008431946704710B5141E4C
:1006B00073F1000408DA401C41F1000192185B411B
:1006C0001A4301D120F0010010BD2DE9F04D9246F2
:1006D0009B4611B1B1FA81F202E0B0FA80F2203209
:1006E0009046FFF7E5FD04460F4640EA0A0041EA5E
:1006F0000B0153465A46084313D0114653EA0100F2
:1007000019D0C8F140025046FFF7E1FD05460E46FC
:10071000504659464246FFF7CBFD084305D001201D
:1007200004E020463946BDE8F08D0020054346EA46
:10073000E0762C4337430A986305E40AA0EB0800EF
:100740000022FD0A44EA47540A3002D5002001463F
:10075000E9E7010510196941DDE90845001969411A
:10076000BDE8F04DA2E710B5846B204600F08BF990
:100770000120207110BD10B5846B204600F05AF99D
:100780000120207110BD10B5846B206940F0040079
:100790002061204600F079F90120207110BD10B5CC
:1007A000846B206940F004002061204600F049F984
:1007B0000120207110BD10B5806B00F065F910BDEF
:1007C00010B5806B00F03CF910BD0000014800F04E
:1007D0003DBA0000E0400020014800F037BA0000B8
:1007E000F441002001681823CAB2103AB2FBF3F2B8
:1007F000054B6FF30901032A9B5CC36500D9091DF2
:100800008165084670470000E47B000810B501468A
:1008100000208B698A6A4FF0C07453B1B3F5005F52
:1008200015D072B1012A0CD0022A0AD0032A09D1AC
:1008300004E01AB1012A06D0022A03D1C96AC9010B
:1008400000D5012010BDC96AA142FAD010BD002A0E
:10085000F7D0012AF2D0022AF3D0032AF3D010BD38
:1008600030B50468256825F4802525600468636038
:100870008368402B036803D099600068C26030BD74
:100880009A600068C16030BD2DE97C4004F060FDD5
:10089000334C00BF04F014F820600028FADB04F0A9
:1008A000CFFD00BF04F00CF860600028FADB0025E3
:1008B000032808D0022809D0042819D0052825D0FB
:1008C000062833D00BE025606560DFE704F0D8FC34
:1008D00003F0F6FFA0600028FADB032804D0BDE88F
:1008E0007C401F4804F00EBB25606560A560CDE725
:1008F00025600020A56001F01BFF062114201E23A7
:10090000CDE900012322194616480CE0256000209D
:10091000A56001F00DFF0C210A20CDE90001142390
:1009200013220F21104801F031FD7CBD256000200D
:10093000A56001F0FDFE0320CDE9005014235122F3
:1009400041210A4801F022FD042002F0B1F9F4210E
:10095000322002F079F9BDE87C4005A002F03AB8F7
:10096000C0400020AD6F0008C77300081C5B000882
:100970004D6572636921000000B587B000BF00209B
:1009800001902848006840F00400264908600846A5
:10099000006800F00400019000BF00BF00BF00200D
:1009A00001900846006840F00100086008460068B1
:1009B00000F00100019000BF00BF00BF00200190C7
:1009C0000846006840F0020008600846006800F031
:1009D0000200019000BF00BF82200290012003901E
:1009E00000200490059002A90F4800F0B7FA40F2E9
:1009F000137002900120039000200490059002A93A
:100A00000A4800F0ABFA40F239400290012003900E
:100A100000200490059002A9054800F09FFA07B055
:100A200000BD0000303802400008024000000240D3
:100A30000004024001490120C870704710000020E6
:100A40007047704770B54379012B1AD00126467163
:100A50000223037105682C6840F6FE7393409C43A3
:100A6000D1E900310B43934023432B6001680B68AD
:100A7000C0249440A3430B600671002141710846D5
:100A800070BD022070BD70477047704770B504009C
:100A900003D02079002510B105E0012070BD6571FB
:100AA000204600F007F80220207125610120207106
:100AB000002070BD70B5054600681B4986B08842AD
:100AC00030D11A480026016841F0005101600068E9
:100AD000694600F000500590202000900320CDE9E9
:100AE0000106134800F03AFA134C124820604FF008
:100AF000606060604020C4E902060001206180005F
:100B000060618000C4E906064FF44030C4E908067D
:100B1000204600F06BF918B16F2108A002F0D6FE54
:100B2000EC60A56306B070BD007400404038024020
:100B300000000240A0600240E04000202E2E2F5313
:100B400072632F6461632E63000000002DE9F041A1
:100B500004460D461746617900220698012920D0E7
:100B60000126667102212171F5B1D4F80CC031491A
:100B7000CCF83C10D4F80CC02F49CCF84010D4F875
:100B80000CC02E49CCF84C102168D1F800C04CF0B4
:100B9000805CC1F800C090B3042834D0082837D155
:100BA00034E00220BDE8F081D4F808C02449CCF834
:100BB0003C10D4F808C02349CCF84010D4F808C041
:100BC0002149CCF84C102168D1F800C04CF4805C6D
:100BD000C1F800C020B1042805D0082808D105E0DC
:100BE0002268083204E022680C3201E022681032E8
:100BF0002068016841F400510160A0680EE0FFE741
:100C00002268143204E02268183201E022681C32A3
:100C10002068016841F000510160E068394600F049
:100C20004FF920680168AE403143016000206071D7
:100C3000B8E7000077070008C10700089F07000811
:100C400067070008B7070008870700082DE9F84381
:100C500004464FF00009CDF8009063484FF4165158
:100C6000A56D0068B0FBF1F72E6894F85C100820C1
:100C700000FA01F131420FD021680A6852070BD502
:100C80000A6822F004020A6094F85C108840A860A8
:100C9000606D40F00100606594F85C104FF0010851
:100CA00008FA01F0304208D021684969090604D5E4
:100CB000A860606D40F00200606594F85C1004204C
:100CC0008840304208D021680968890704D5A860A7
:100CD000606D40F00400606594F85C10102088405E
:100CE000304218D021680968090714D5A860206827
:100CF0000168490304D50068000308D5A16C07E02A
:100D00000168C90503D4016821F008010160216C64
:100D100009B12046884794F85C1020208840304272
:100D200031D021680968C9062DD5A86094F835002E
:100D300005282068016806D0490347D500680003EC
:100D40001DD4616C1CE021F016010160206841692E
:100D500021F080014161206C08B9A06C20B12068AD
:100D6000016821F00801016094F85C103F20884080
:100D7000A86084F8349084F83580216D1FE0E16B21
:100D800009B120468847606D00282BD0606DC007F0
:100D900014D0052084F835002068016821F0010195
:100DA00001600098401C0090B84203D82068006899
:100DB000C007F6D184F8349084F83580E16C0029BE
:100DC00010D001B02046BDE8F04308470168C905CE
:100DD000D5D4016821F01001016084F8349084F8C2
:100DE0003580CCE7BDE8F883E80000202DE9F0412C
:100DF000044600F08FF906465CB1002584F83450B3
:100E0000022084F835002068016821F001010160AA
:100E10000DE00120BDE8F08100F07CF9801B052881
:100E200005D920206065032084F83500F2E72068AA
:100E30000068C007F0D12268116820480140D4E959
:100E400001031843D4E90336334318436369184355
:100E5000A3691843E3691843236A18430843616A86
:100E6000042903D1D4E90B13194308431060206807
:100E70004069666A20F0070130460E4301270428C6
:100E80000CD1A06A0643E06A40B12046FFF7BEFCE1
:100E900020B14020606584F83570BAE7206846616B
:100EA0002046FFF79FFC94F85C203F219140816031
:100EB000656584F835700020ACE700003F8010F0D5
:100EC0002DE9F0410446866D90F834000025012894
:100ED0000DD0012084F8340094F835700020012FE3
:100EE00007D084F8340002252846BDE8F0810220AE
:100EF000FBE7022784F8357060652046FFF7B0FCF9
:100F000094F85C103F208840B0602068016841F090
:100F1000160101602068416941F080014161206C47
:100F200020B12068016841F0080101602068016873
:100F300041F001010160D7E770B5044600F0EAF81E
:100F40000546601C02D004480078044400F0E2F832
:100F5000401BA042FAD370BDDC0000202DE9F84F01
:100F6000DFF874B100224FF001084FF0030A4FF090
:100F70000F090BF1040E00BF0B6808FA02F42340BE
:100F8000A3426ED14D68022D01D0122D0ED1D5088D
:100F900000EB850CDCF820505607F70E09FA07F62F
:100FA000B5430E69BE402E43CCF82060066855005C
:100FB0000F790AFA05FC07F0030726EA0C06AF4092
:100FC000374307604E68012E05D0022E03D0112E44
:100FD00001D0122E0ED18668CF6826EA0C06AF40EB
:100FE000374387604668A6430C79C4F300149440E5
:100FF00034434460C4688E6824EA0C04AE4026433F
:10100000C6604C68E40060D5344C256845F48045E2
:101010002560246822F0030504F480440094304CD9
:101020002E19D6F8084895072F0F09FA07F5AC4393
:101030002C4DA84201D100251FE02B4DA84201D123
:1010400001251AE0294DA84201D1022515E0284DBD
:10105000A84201D1032510E0264DA84202D1042563
:101060000BE032E0244DA84201D1052505E0234DD7
:10107000A84201D1062500E00725BD402543C6F85A
:101080000858DBF800405D464E689C43F60300D5E7
:101090001C432C60DEF8004075464E689C43B60346
:1010A00000D51C432C600C4D08352C684E689C43C1
:1010B000F60200D51C432C60074D0C352C684E6899
:1010C0009C43B60200D51C432C60521C102AFFF42E
:1010D00053AFBDE8F88F0000003C014044380240A7
:1010E00000300140000002400004024000080240BD
:1010F000000C0240001002400014024000180240A0
:101100000069084000D0012070470AB18161704732
:101110000904FBE70148806870470000DC000020FC
:10112000024881680278114481607047DC00002029
:101130000B4810B5016841F400710160016841F489
:1011400080610160016841F480710160032000F05A
:1011500097F8002000F006F800F024F8002010BDF9
:10116000003C024070B50D4D04464FF47A7128786A
:10117000B1FBF0F00A490968B1FBF0F000F049FB5F
:1011800048B9102C07D200222146501E00F058F812
:1011900000206C6070BD012070BD0000DC000020EC
:1011A000E80000201F4808B5016841F48041016053
:1011B000006800F4804000901A48001F016841F068
:1011C00080510160006800F080500090072000F01E
:1011D00057F8002211466FF00B0000F031F80022A2
:1011E00011466FF00A0000F02BF8002211466FF054
:1011F000090000F025F800221146501F00F020F8E9
:1012000000221146101F00F01BF800221146901E0C
:1012100000F016F80022BDE808401146501E00F00C
:101220000FB800004438024000F01F020121914035
:101230004009800000F1E020C0F800117047000074
:10124000F0B40E4B1B680C46C3F30223C3F1070531
:10125000042D00D90425191D072901D2002300E01F
:10126000DB1E012606FA05F1491E214099409E40E9
:10127000761E16403143F0BC01F050BF0CED00E08B
:10128000064900F0070208684FF6FF03184040EADD
:101290000220034A10430860704700000CED00E094
:1012A0000000FA052DE9F0470E46050065D0DFF88D
:1012B0001481D8F80000F7B200F00F00B04207D256
:1012C00088F80070D8F8000000F00F00B04254D148
:1012D00028683D4C810712D5400703D5206840F4AB
:1012E000E05020602878000703D5206840F4604073
:1012F00020602068A96820F0F0000843206028786A
:10130000C0072DD0304968680839012812D002285A
:1013100013D0032811D00968890700292DDA216824
:1013200021F0030101432160FFF7F4FE814641F201
:10133000883A0EE009688903EFE709688901ECE75C
:10134000FFF7E8FEA0EB0901514502D90320BDE8F3
:10135000F0872068696800F00C00B0EB810FEFD1D6
:10136000D8F80010404601F00F01B14207D90770CC
:10137000006800F00F00B04201D00120E7E72878B4
:10138000400705D52068E96820F4E0500843206054
:101390002878000706D52068296920F4604040EAD3
:1013A000C100206000F03CF82168084AC1F3031135
:1013B000515CC840064908600020FFF7D3FE0020BA
:1013C000C5E70000003C024008380240EC7B000802
:1013D000E80000200148006870470000E800002095
:1013E0000448054900680968044AC1F38221515C38
:1013F000C8407047E800002008380240FC7B000825
:101400000448054900680968044AC1F34231515C47
:10141000C8407047E800002008380240FC7B000804
:10142000224810B5006810F00C02214815D0411078
:10143000042A11D01D4C241F082A0FD00C2A0CD1CD
:101440002268236802F03F025B0221D52068C0F3C6
:101450008810A0FB010120E0084610BD2268236827
:1014600002F03F025B0205D52068C0F38810A0FBA4
:10147000010104E02168C1F38811A1FB00010023F0
:10148000FEF7BCFE2168C1F30141491C49000AE096
:101490002168C1F38811A1FB00010023FEF7AEFE15
:1014A0002168C1F30271B0FBF1F010BD08380240B1
:1014B0000024F4002DE9F84F0546DFF828B3007842
:1014C000ABF10407C007A7F1040451D0DBF800100A
:1014D0005846C1F3810101290FD00168C1F3810190
:1014E000022902D13968490207D40068C0F381009B
:1014F000032809D13868400206D52068800337D513
:101500006868002872D033E06868B0F5803F10D07A
:10151000B0F5A02F206810D020F480302060206823
:1015200020F4802020606868A8B1FFF7F3FD06462C
:101530000DE0206840F48030F4E740F48020206023
:10154000F7E700BFFFF7E6FD801B642878D8206826
:101550008003F7D50CE0FFF7DDFD064605E000BF90
:10156000FFF7D8FD801B6428F0D820688003F7D4EB
:101570002878DFF8749280074FF0000A46D5DBF830
:101580000010584611F00C0F0FD00168C1F3810113
:10159000022902D13968490207D50068C0F38100E9
:1015A000032809D13868400206D42068800715D581
:1015B000E86801281AD111E0E868C0B10120C9F833
:1015C0000000FFF7A7FD064605E000BFFFF7A2FDFC
:1015D000801B0228BAD820688007F7D520682969BF
:1015E00020F0F80040EAC10020600FE0F7E0C9F801
:1015F00000A0FFF78FFD064605E000BFFFF78AFD5C
:10160000801B02281CD820688007F7D428780007A0
:1016100027D5DFF8D0817548696908F16C0881B178
:1016200001210160FFF776FD064604E0FFF772FD39
:10163000801B022804D8D8F800008007F6D510E0F7
:1016400089E0C0F800A0FFF765FD064605E000BF91
:10165000FFF760FD801B02287DD8D8F800008007C6
:10166000F6D42878400769D55E484FF00008383036
:101670000068C0000BD45B483830016841F08051ED
:10168000016000684FF0010800F080500090584E53
:101690003068C00511D4306840F480703060FFF7C6
:1016A00039FD009006E000BFFFF734FD0099401AB5
:1016B000022850D83068C005F6D54A4EA86868366A
:1016C00001280FD00528306810D020F001003060CC
:1016D000306820F004003060A868B8B1FFF71AFD48
:1016E00000900FE0306840F00100F4E740F00400A3
:1016F0003060F7E7FFF70EFD0099411A41F288309C
:10170000814264D830688007F4D50EE0FFF702FD0F
:10171000009007E0FFF7FEFC0099411A41F2883083
:10172000814254D830688007F4D4B8F1000F05D056
:101730002C483830016821F080510160A869A8B3B5
:10174000DBF80010C1F38101022948D00228C9F852
:1017500060A005D000E03AE0FFF7DCFC054639E088
:10176000FFF7D8FC064604E0FFF7D4FC801B0228F4
:101770002DD820688001F7D4F5E907010843E9680E
:101780001C4A490802EB0141AA6841EA8211084358
:10179000297C40EA0160297D40EA0170386001201F
:1017A000C9F86000FFF7B6FC054606E015E000BF8B
:1017B000FFF7B0FC401B022809D820688001F7D54C
:1017C0000BE000BFFFF7A6FC401B022802D9032054
:1017D000BDE8F88F20688001F4D40020F8E70120EC
:1017E000F6E700000838024000004742800E4742FA
:1017F000007000400000FFFF4FF0E021042808695E
:1018000003D020F004000861704740F00400FAE7BC
:10181000704710B5401EB0F1807F01D3012010BD8C
:101820004FF0E02460610F21601701F077FC002089
:10183000A06107202061002010BD10B5FFF7E8FF70
:1018400010BD7047704730B590F83820012A20D07D
:10185000012280F83820022380F8393003685C6860
:1018600024F070045C6003685C680D682C435C6065
:1018700003689C6824F080049C6003689C68496845
:101880000C439C6080F83920002180F8381008460D
:1018900030BD022030BD10B5040003D094F83900EB
:1018A00010B107E0012010BD002084F83800204668
:1018B00000F00CF8022084F83900211D206801F0A6
:1018C000D3FC012084F83900002010BDF0B5064695
:1018D00000680025304987B0B0F1804F3AD02F4AD8
:1018E000904246D1086840F00200086008688F15F1
:1018F00000F00200009705900220CDE90105CDE936
:10190000035069462648FFF729FB274C25482060ED
:101910004FF02060C4E90105B800C4E9035080001D
:1019200060618000A061C4E9077520466562FFF729
:101930005DFA18B1E5211DA001F0C8FFB4620022D4
:1019400011461D20A663FFF77BFC1D20FFF76CFCF2
:1019500007B0F0BD086840F0010008600868002288
:1019600000F00100059011461C20FFF769FC1C20C7
:10197000ECE7124A9042EBD1086840F0040008609E
:101980000868002200F00400059011461E20FFF7B1
:1019900057FC1E20DAE700004038024000040040F7
:1019A00000080240B8600240F44100202E2E2F5360
:1019B00072632F74696D2E63000000000008004000
:1019C0000168CA6842F00102CA600068016841F01B
:1019D000010101600020704770B5044690F838009E
:1019E000012817D0012584F83850022084F83900E6
:1019F0002068826822F0770222F47F4282600868C1
:101A0000502837D00DDC202859D005DC88B31028A9
:101A100041D151E0022070BD302853D040283AD146
:101A20003FE060282ED070280BD0B0F5805F03D047
:101A3000B0F5005F2FD110E02068816821F0070128
:101A400015E0CB68D1E90121206801F09FFC2168F5
:101A5000886840F0770088601DE0CB68D1E90121FB
:101A6000206801F093FC2068816841F48041816026
:101A700011E01EE0CA684968206801F04FFD50215E
:101A8000206806E0CA684968206801F09BFD602173
:101A9000206801F085FC84F83950002084F8380073
:101AA00070BDCA684968206801F038FD402120688F
:101AB000EFE700212068ECE710212068E9E720210A
:101AC0002068E6E730212068E3E77047007E0428BD
:101AD00002D1024901200870704700001000002068
:101AE0002DE9F041044690F838000D4601283DD01C
:101AF000012684F83860022084F83900AAB3042A49
:101B000046D02068082A55D0D5E90027E968036A3D
:101B100023F480530362D0F81CC0036A2CF4407C89
:101B20004CEA07274FF6FF7C27F470470CEA013197
:101B300039434FF4204723F4204307EA02321A4383
:101B4000C16102622068C16921F44061C1612068FD
:101B5000C169AA6841EA0221C0F81C1084F8396002
:101B6000002084F83800BDE8F08101E00220FAE7A7
:101B7000D5E90012EB68206801F0E2FC2068816979
:101B800021F00C01816120688169AA6811430FE08E
:101B9000D5E90012EB68206801F026FD2068816914
:101BA00021F44061816120688169AA6841EA0221CB
:101BB0008161D3E7D5E9002C2F7B016A21F4807184
:101BC0000162C169036A21F0030141EA0C0121F0BD
:101BD000F00C39074FF420674CEA116123F42063BD
:101BE00007EA02221A43C16102622068C16921F03A
:101BF0000C01C1612068C169AA681143ACE710B546
:101C0000040003D094F8390010B107E0012010BDA2
:101C1000002084F83800204600F00CF8022084F8F8
:101C20003900211D206801F01FFB012084F83900D4
:101C3000002010BD7047000070B5044690F83900D0
:101C40000E46022805D094F83900012805D10AB9BA
:101C500003B170BD022084F839002748274D36B102
:101C6000042E12D0082E2AD00C2E1CD135E0216A69
:101C7000C863206AC5642168206A3431FFF720F9FF
:101C80002068C16841F400710CE0616AC863606A51
:101C9000C5642168606A3831FFF712F92068C168AD
:101CA00041F48061C16001223146206801F03CFBB3
:101CB0002068016841F001010160002070BDA16A47
:101CC000C863A06AC5642168A06A3C31FFF7F8F8D0
:101CD0002068C16841F40061E4E7E16AC863E06A32
:101CE000C5642168E06A4031FFF7EAF82068C168FE
:101CF00041F48051D6E700003F3300087D330008EF
:101D000070B50446006801694FF00005C9438907B2
:101D100015D4C168C943890711D4E91E01610120A6
:101D20002076206880698007204602D0FFF7CEFE2B
:101D300004E000F0B1F8204600F033F92576206881
:101D40000169C943490717D4C168C943490713D476
:101D50006FF004010161022020762068806910F490
:101D6000407F204602D0FFF7B1FE04E000F094F877
:101D7000204600F016F9257620680169C943090755
:101D800016D4C168C943090712D46FF00801016174
:101D9000042020762068C0698007204602D0FFF723
:101DA00095FE04E000F078F8204600F0FAF8257679
:101DB00020680169C943C90617D4C168C943C90667
:101DC00013D46FF010010161082020762068C069EB
:101DD00010F4407F204602D0FFF778FE04E000F0C8
:101DE0005BF8204600F0DDF8257620680169C943DC
:101DF000C90708D1C168C943C90704D1891E016157
:101E0000204600F0CFF820680169C943090609D4CB
:101E1000C168C943090605D46FF0800101612046FD
:101E2000FFF70FFD20680169C943490609D4C1685D
:101E3000C943490605D46FF040010161204600F016
:101E4000CDF820680169C94389060BD4C168C9432C
:101E5000890607D46FF0200101612046BDE870407B
:101E6000FFF7F0BC70BD000000B5006885B0B0F1B0
:101E7000804F0CD10420009002200190002002909D
:101E800003900120049069460248FFF767F805B007
:101E900000BD000000040240704770B5044690F891
:101EA00038000D4601280DD0012684F83860022044
:101EB00084F8390042B1042A18D0082A2AD00C2A02
:101EC0004DD139E0022070BD206801F071FA206820
:101ED000816941F0080181612068816921F0040174
:101EE0008161206881692A69114311E0206801F04D
:101EF0008BFA2068816941F4006181612068816901
:101F000021F480618161206881692A6941EA0221A6
:101F1000816124E0206801F0A9FA2068C16941F0DC
:101F20000801C1612068C16921F00401C161206814
:101F3000C1692A69114311E0206801F0C7FA2068DD
:101F4000C16941F40061C1612068C16921F4806107
:101F5000C1612068C1692A6941EA0221C16184F82E
:101F60003960002084F8380070BD10B5040003D03B
:101F700094F8390010B107E0012010BD002084F86A
:101F80003800204600F00CF8022084F83900211DAA
:101F9000206801F069F9012084F83900002010BDA3
:101FA0007047704710B50068B0F1804F12D10A48F1
:101FB00000220123C179491CCCB2C471017A491CA9
:101FC000C9B20172052C01D3C2714370022901D339
:101FD0008370027210BD000010000020704770B5C1
:101FE000040004D094F83900002510B106E0012067
:101FF00070BD84F83850204600F022F8242084F880
:1020000039002068C16821F40051C160204601F008
:1020100007FB2068016921F4904101612068416952
:1020200021F02A0141612068C16841F40051C1607A
:10203000E563202084F8390084F83A00002070BD60
:1020400000B500680E4987B0884216D10D48016876
:1020500041F4003101600068694600F400300590E9
:102060000C20009002200190012002900320039098
:10207000072004900448FEF771FF07B000BD000080
:1020800000440040403802400000024010B5F020FB
:10209000174908804FF4A07016490880002016499F
:1020A00008701649088016490880042015490870F0
:1020B0004FF6FF7014490880144908800120144924
:1020C0000870FEF759FC00F011FD002201211148B3
:1020D000FFF71BF800F0EEFC0748007800F0C0FDA9
:1020E00040F23F13EF220021084600F04BFD10BDE7
:1020F00000000020020000200D000020040000204D
:10210000060000200C0000200A000020080000202B
:102110000E000020000402402DE9FF4F81B006466A
:102120000F469946DDE90EB43648B0F90000864204
:1021300010DA3548B0F9000087420BDA062000FBC0
:102140000460401E002805D4082000FB0470401ED7
:10215000002802D505B0BDE8F08F00254DE0052D23
:1021600002D14FF0000A46E0039800EB80002844BB
:10217000264911F800A04FF0000839E00AF00100EC
:10218000B8B1012C08D107EB080211B2721910B2D4
:102190004A4600F03DF925E008FB047211B205FB48
:1021A000046210B223462246CDF8009000F020FAD7
:1021B00018E0CB4516D0012C08D107EB080211B26C
:1021C000721910B25A4600F023F90BE008FB0472B2
:1021D00011B205FB046210B223462246CDF800B0CE
:1021E00000F006FA4FEA6A0A08F101004FFA80F897
:1021F000B8F1080FC2DB681C45B2062DAFDB00BF8B
:10220000A8E700000000002002000020805700081E
:102210002DE9F04104460E4615469846002D10DD86
:10222000002E0EDB1C48B0F90000864209DA1B487C
:10223000B0F90000844204DA6019401E07B2002F92
:1022400001DABDE8F081002C02DA281905B2002479
:102250001248B0F90000874206DB10480088401E93
:1022600007B2381B401C05B233463A463146204679
:1022700000F088FC2946404600F08AFA0648B0F98A
:102280000000431E0548B0F90000421E0021084628
:1022900000F078FC00BFD4E702000020000000201E
:1022A000F8B504460D4616461F46A819401E03B24F
:1022B000224629462046009700F001F8F8BD2DE996
:1022C000F84F04460D4616461F46791B002901DBD0
:1022D0000A4600E04A42301B002801DB034600E0CA
:1022E00043429A4201DD012200E000229346BBF105
:1022F000000F06D020462C46054630463E4607468F
:1023000000BFB44206DD20463446064628463D4618
:10231000074600BF301B0FFA80F8781B002801DB4E
:10232000014600E0414209B20091404608EBD071FD
:1023300049100FFA81F9BD4202DA4FF0010A01E0BB
:102340004FF0FF3A1EE0BBF1000F05D021462846B2
:102350000A9A00F05DF804E0294620460A9A00F047
:1023600057F80098A9EB00000FFA80F9B9F1000FB7
:1023700006DA05EB0A0005B209EB08000FFA80F94E
:10238000601C04B2B442DEDDBDE8F88F2DE9FF5FCA
:102390009A46DDE90EB78946002401FB02F830E0D9
:1023A000B4FBF9F109FB114118487943002681710A
:1023B00019E00098005DA0B1002510E013484279B3
:1023C00002EB0B018279314402EB0A00284409B286
:1023D00000B24FF6FF7200F01BF86D1CEDB2BD426B
:1023E000ECD3761CF6B2BE42E3D3B4FBF9F109FBA1
:1023F000114020B91CB10548417939444171641C30
:10240000A4B2A045CCDCBDE8FF9F00001000002076
:102410002DE9F04104460D461746002C06DB002D41
:1024200004DBF02C02DAB5F5A07F01DBBDE8F0811A
:10243000002201211A48FEF768FE1A480078012898
:1024400004D0022808D0032815D10DE02646C5F196
:10245000EF0004B235460EE0C4F1EF0004B240F2E2
:102460003F10401B05B206E026462C4640F23F10C6
:10247000801B05B200BF00BFA1B2202000F070FC9D
:10248000A9B2212000F06CFC3946222000F068FC43
:10249000012211460248FEF738FE00BFC6E70000E1
:1024A000000402400D0000202DE9F04105460E46D3
:1024B00017461C46DDF8188043463A463146284602
:1024C000FFF7A6FE3019401E01B243463A462846A1
:1024D000FFF79EFE4346224631462846FFF7E0FEC0
:1024E000E919491E08B2434622463146FFF7D8FE95
:1024F000BDE8F0812DE9FC4107460D4614461E4615
:102500006000401C02B2281B01B233463846FFF778
:10251000C7FE0020032322462946CDE9000638469F
:1025200000F002F8BDE8FC812DE9FC5F06460F468D
:1025300090469A46DDF83090C8F101000FFA80FB12
:10254000012001904FEA4800404200B20090002470
:10255000454648E0BBF1000F09DB681E05B2009854
:10256000801C00B20090009858440FFA80FB601C59
:1025700004B20198801C00B20190019858440FFAEF
:1025800080FB0AF00100A8B16B005B1C4B441AB23F
:102590007B1B19B2331918B20D9BFFF781FE630044
:1025A0005B1C4B441AB23B1B19B2731918B20D9B3A
:1025B000FFF776FE0AF00200A8B16B005B1C4B44EB
:1025C0001AB27B1B19B2331B18B20D9BFFF768FEC2
:1025D00063005B1C4B441AB23B1B19B2731B18B24D
:1025E0000D9BFFF75DFEAC42B4DBBDE8FC9F000035
:1025F0002DE9F04704460D4616461F46DDF820A09B
:10260000002E19DD002F17DD2C48B0F900008442A0
:1026100012DA2B48B0F9000085420DDAA019401EED
:102620000FFA80F8B8F1000F06DBE819401E0FFA28
:1026300080F9B9F1000F01DABDE8F087002C02DA69
:10264000301906B20024002D02DA781907B20025ED
:102650001A48B0F90000804508DB18480088401E81
:102660000FFA80F8A8EB0400401C06B21448B0F939
:102670000000814508DB12480088401E0FFA80F9EF
:10268000A9EB0500401C07B24B46424629462046AE
:1026900000F078FA06FB07F1504600F079F8084898
:1026A000B0F90000431E0548B0F90000421E0021A9
:1026B000084600F067FA00BFBEE7000000000020F7
:1026C000020000202DE9FC4705460E4617469846B5
:1026D000DDE90A49022101FB14710AB2291908B285
:1026E00043463146CDF80090FFF782FF022000FB01
:1026F0001480401E00B2321911B2EA19121B521E88
:10270000CDE9000910B201232246FFF70DFF022098
:1027100000FB1480401E00B2321911B22A19CDE913
:10272000000910B202232246FFF7FEFEBDE8FC8737
:1027300070B5064614480078012806D0022807D054
:10274000032809D0002400250AE0EF24002507E033
:10275000EF2440F23F1503E0002440F23F1500BF94
:1027600000BF002201210948FEF7CFFC21462020AE
:1027700000F0F6FA2946212000F0F2FA4FF49631E3
:10278000304600F005F870BD0D0000200004024046
:102790002DE9F04706460C46371206F0FF080022E6
:1027A00001218A48FEF7B1FC002210218848FEF77B
:1027B000ACFC002000F086FA222000F083FA01220F
:1027C00010218348FEF7A1FC384600F07BFA404612
:1027D00000F078FA641EC4F38F1947457ED188E073
:1027E000102500BF002202217948FEF78EFC01204F
:1027F00002F060F8012202217548FEF786FC0120F4
:1028000002F058F8002202217148FEF77EFC0120F8
:1028100002F050F8012202216D48FEF776FC0120FB
:1028200002F048F8002202216948FEF76EFC012000
:1028300002F040F8012202216548FEF766FC012003
:1028400002F038F8002202216148FEF75EFC012008
:1028500002F030F8012202215D48FEF756FC01200B
:1028600002F028F8002202215948FEF74EFC012010
:1028700002F020F8012202215548FEF746FC012013
:1028800002F018F8002202215148FEF73EFC012018
:1028900002F010F8012202214D48FEF736FC01201B
:1028A00002F008F8002202214948FEF72EFC012020
:1028B00002F000F8012202214548FEF726FC012023
:1028C00001F0F8FF002202214148FEF71EFC012022
:1028D00001F0F0FF012202213D4800E03AE0FEF75E
:1028E00014FC012001F0E6FF681EC0B2051E7FF453
:1028F00079AFB9F10000A9F101011FFA81F97FF464
:102900006FAF04F03F051FE0002202213048FEF7C0
:10291000FCFB012001F0CEFF012202212C48FEF732
:10292000F4FB012001F0C6FF002202212848FEF737
:10293000ECFB012001F0BEFF012202212448FEF73A
:10294000E4FB012001F0B6FF281EA5F10101CDB284
:10295000DAD133E01DE0102500BF384600F0B2F9AF
:10296000404600F0AFF9384600F0ACF9404600F0C0
:10297000A9F9384600F0A6F9404600F0A3F9384618
:1029800000F0A0F9404600F09DF9681EC0B2051E97
:10299000E3D1B9F10000A9F101011FFA81F9DAD1FF
:1029A00004F03F0505E0384600F08CF9404600F0A1
:1029B00089F9281EA5F10101CDB2F4D101221146F9
:1029C0000248FEF7A2FBBDE8F087000000040240C9
:1029D000000002400FB43EB507A802902D48029AAD
:1029E000069900F075FF002002902A4C4CE02078F8
:1029F0000A280CD1284800782849098801EBC00032
:102A000000B2264908800020254908803BE0207854
:102A10000D2838D02048007822490988CDE90010D7
:102A20002278214803881D48B0F900101C48B0F9ED
:102A30000000FFF771FB1848007800EB40001849D0
:102A4000098801EB400000B215490880174800785A
:102A5000C8B11148007800EB40001549B1F90010E9
:102A6000A1EB40000E49B1F9001088420BDA0A4888
:102A700000780A49098801EBC00000B207490880C4
:102A8000002007490880641C20780028AFD13EBC94
:102A90005DF814FBF00000200C0000200600002070
:102AA000040000200A000020080000200E00002082
:102AB0000000002070B5002412E00B4830F81460CC
:102AC0000146601C31F81050FF2E03D1284601F05A
:102AD000F1FE03E02946304600F042F9A01C84B222
:102AE000642CEAD370BD0000005A000810B5012222
:102AF00011462148FEF709FB012202211F48FEF77B
:102B000004FB012211461D48FEF7FFFA00220221B4
:102B10001B48FEF7FAFA642001F0CCFE01220221E4
:102B20001748FEF7F2FA002201211348FEF7EDFAEA
:102B3000002210211148FEF7E8FA002000F0C2F848
:102B4000002411E0002202210C48FEF7DEFA0120E9
:102B500001F0B0FE012202210848FEF7D6FA01205A
:102B600001F0A8FE601CC4B2032CEBDB012211466D
:102B70000148FEF7CAFA10BD0004024000000240FE
:102B8000000802402DE9F04706460F469046994658
:102B9000002201212A48FEF7B8FA2A4800780128C5
:102BA00006D002280ED003281BD034463D4624E030
:102BB000BA463746C9F1EF06C146CAF1EF084446A6
:102BC0003D461AE0B246C8F1EF06CAF1EF08BA4630
:102BD00040F23F10A0EB0907A0EB0A0944464D461E
:102BE0000BE0B2463E4640F23F10A0EB0807C84655
:102BF000A0EB0A0934464D4600BF00BFB1B25020D9
:102C000000F0AEF81FFA88F1512000F0A9F8B9B22F
:102C1000522000F0A5F81FFA89F1532000F0A0F827
:102C2000A1B2202000F09CF8A9B2212000F098F871
:102C3000012211460248FEF768FABDE8F08700005D
:102C4000000402400D00002002B2034B1A800AB2B9
:102C5000024B1A807047000004000020060000208C
:102C600000F003010F4A11701146097831B10129B2
:102C70000DD0022903D0032912D109E000BFF021B1
:102C8000094A11804FF4A071084A118008E000BF82
:102C90004FF4A071044A1180F021044A118000BF52
:102CA00000BF70470D00002000000020020000203F
:102CB000002801DD014600E00121014A1170704742
:102CC0000C00002010B50446224840694FF6FF0171
:102CD000084004F0010140EA412004F0040140EA08
:102CE000012004F0800140EA41001A4948611A4875
:102CF00000684FF6C731084004F00801084304F0AB
:102D0000100140EA410004F0200140EA610004F0B3
:102D1000400140EA011010490860104800684FF671
:102D20007F71084004F0020140EA81100B490860FD
:102D3000002202210748FEF7E8F9012001F0BAFD60
:102D4000012202210348FEF7E0F9012001F0B2FD63
:102D500010BD0000000002401404024014080240AC
:102D60002DE9F04104460D462612E7B2002210215B
:102D70000B48FEF7CAF93046FFF7A4FF3846FFF7C5
:102D8000A1FF2E12EFB2012210210548FEF7BDF976
:102D90003046FFF797FF3846FFF794FFBDE8F08114
:102DA000000002401CB50E490C4808600846FDF7BB
:102DB0006DFE18B13F210BA000F088FD2C20009083
:102DC00000200190102269460548FDF73BFE0028CF
:102DD00003D0482103A000F079FD1CBD0074004021
:102DE000CC4000202E2E2F5372632F6461632E631C
:102DF000000000000D4808B5016841F400110160B1
:102E00000068002200F40010009011461120FEF727
:102E100017FA1120FEF708FA002211462F20FEF7BC
:102E20000FFABDE808402F20FEF7FEB93038024007
:102E30002DE9F043304887B00024016841F00401D7
:102E40000160016801F004010591016841F0800111
:102E50000160016801F080010591016841F0010104
:102E60000160016801F001010591016841F0020172
:102E700001600068DFF8848000F002000590002205
:102E800020214046FEF741F9DFF874904FF4805757
:102E9000002239464846FEF738F978000090194874
:102EA000CDE9010469464046FEF758F8202000901D
:102EB0001125CDE90154694640460394FEF74EF8CA
:102EC0004FF4107001268DE8510069464046FEF728
:102ED00045F80097CDE90154694648460394FEF74A
:102EE0003DF84FF440708DE8510069460648FEF702
:102EF00035F807B0BDE8F0833038024000080240E2
:102F000000000240000021100004024010B52548D6
:102F10008EB04FF08041016040F247310024C0E99B
:102F2000011442F20F71C0E90314FEF7B4FC18B1AA
:102F300045211DA000F0CAFC4FF48050079007A95E
:102F40001848FEF749FD18B14B2117A000F0BEFC50
:102F50001448FFF70AF818B1502113A000F0B6FC8E
:102F60000B940BA90F480C94FEF76DFC18B1572178
:102F70000DA000F0ABFC602000904FF4FA50CDE9BA
:102F800001040C22694607480494FEF786FF18B135
:102F9000602105A000F09AFC0248FEF765FF0EB024
:102FA00010BD0000404100202E2E2F5372632F745D
:102FB000696D2E630000000010B523488AB02149D6
:102FC000016053210024C0E901144FF6FF71C0E9EC
:102FD0000314FEF760FC18B174211CA000F076FC0D
:102FE0004FF48050049004A91748FEF7F5FC18B17F
:102FF0007A2116A000F06AFC1348FEF700FE18B113
:103000007F2112A000F062FC089408A90E480994E0
:10301000FEF719FC18B186210CA000F057FC0A201D
:1030200000900120CDE90104082269460648039476
:10303000FEF756FD002803D08F2104A000F046FCC7
:103040000AB010BD000400407C4100202E2E2F53FA
:1030500072632F74696D2E630000000010B517486D
:1030600086B01549016014210024C0E901146321D0
:10307000C0E90314FEF70FFC18B1A02110A000F066
:1030800025FC4FF48050009069460C48FEF7A4FCE4
:1030900018B1A6210AA000F019FC2020CDE90404F3
:1030A00004A90648FEF7CFFB002803D0AD2104A0F9
:1030B00000F00CFC06B010BD00080040B841002034
:1030C0002E2E2F5372632F74696D2E630000000043
:1030D0000D4810B50B4901604FF4E131416000210A
:1030E00081600C22C160C0E904128161C161FEF7F8
:1030F00076FF002805D0BDE81040422103A000F073
:10310000E5BB10BD00440040544200202E2E2F533A
:1031100072632F75736172742E6300000907090EC4
:10312000002806DA00F00F0000F1E02080F8141DFE
:10313000704700F1E02080F8001470477047704736
:1031400010B5FDF7EDFFBDE81040FEF776BB0000BF
:1031500030B5254893B00025016841F080510160E9
:10316000006800F0805012902048016821F440412E
:1031700041F4804101600068022400F44040129054
:10318000012003901020009406940490CDE907508C
:103190004FF4A87009900420CDE90A0468460C9405
:1031A000FEF788F900B1FEE70DA90F2081E8310094
:1031B0004FF48050CDE9100502210DA8FEF772F8FA
:1031C00000B1FEE7FEF706F94FF47A71B0FBF1F0BB
:1031D000FEF71FFB0420FEF70FFB00221146501ED6
:1031E000FEF72EF813B030BD4038024000700040AA
:1031F0001048016841F4700101600F48016841F016
:10320000010101600C4A00210832116002680B4B79
:103210001A400260031D0A4A1A60026822F48022E2
:10322000026005480C300160024958068039086088
:103230007047000088ED00E000380240FFFFF6FE16
:10324000103000240148FEF75BBD00004041002023
:103250000148FEF755BD00007C4100200148FEF703
:103260004FBD0000B8410020F0B50268234B244D4B
:10327000244E254F254C4FF0804C984209D0604594
:1032800007D0A84205D0B04203D0B84201D0A04236
:1032900004D122F0700E4A6842EA0E0298421BD016
:1032A000604519D0A84217D0B04215D0B84213D00B
:1032B000A04211D0164DA8420ED0164DA8420BD0F8
:1032C000154DA84208D0154DA84205D0144DA8426E
:1032D00002D0144DA84203D122F44075CA682A4393
:1032E00002608A68C2620A688262984201D0A04283
:1032F00001D10969016301214161F0BD0000014074
:103300000004004000080040000C004000040140A0
:1033100000400140004401400048014000180040C6
:10332000001C00400020004010B50123046A8B40BF
:103330009C430462036A8A401343036210BD10B5C4
:10334000846B012184F83910226A824201D12176EE
:103350000EE0616A814201D1022008E0A16A814247
:1033600001D1042003E0E16A814201D108202076E6
:103370002046FEF7ABFB0020207610BD10B5806B19
:10338000012180F83910FEF7A0FB10BD10B584684C
:1033900042EA032224F47F440A432243826010BDA0
:1033A000826822F070020A4342F007018160704790
:1033B00030B5026A22F001020262026A436884693F
:1033C0000D6824F07304254322F002048A68224326
:1033D0000B4CA04202D00B4CA0420BD122F00804AF
:1033E000CA6823F4407322434C6922F004021C4350
:1033F0008B6923434360856149684163026230BD44
:10340000000001400004014030B5026A22F01002C1
:103410000262026A436884690D6824F4E64444EA5F
:1034200005248D6822F0200242EA05120D4DA842C3
:1034300002D00D4DA8420ED1CD6822F0800242EAA2
:1034400005124D6923F4406343EA85038D6922F038
:10345000400243EA850343608461496881630262F4
:1034600030BD0000000001400004014030B5026A98
:1034700022F480720262036A4268C46923F4007312
:1034800024F073050C682C438D6843EA05230D4D29
:10349000A84202D00C4DA8420ED1CD6823F400639F
:1034A00043EA05234D6922F4405242EA05128D6930
:1034B00023F4806342EA05124260C4614968C16333
:1034C000036230BD000001400004014030B5026AD3
:1034D00022F480520262046A4268C3690D6823F4D0
:1034E000E64343EA05238D6824F4005444EA053496
:1034F000084DA84202D0084DA84204D14D6922F4DB
:10350000804242EA85124260C361496801640462F4
:1035100030BD0000000001400004014010B5036A06
:10352000046A24F001040462846924F0F00444EA8B
:10353000021423F00A020A438461026210BD0000F3
:1035400070B5046A24F0010404628469056A164EA9
:10355000B04214D0B0F1804F11D0144EB0420ED012
:10356000134EB0420BD0134EB04208D0124EB042B0
:1035700005D0124EB04202D0114EB04203D124F019
:103580000304144303E024F0030242F001041A0789
:1035900024F0F00444EA126225F00A0301F00A0163
:1035A00019438261016270BD0000014000040040C7
:1035B00000080040000C00400004014000400140B1
:1035C0000018004010B5036A23F0100303628369FA
:1035D000046A23F4704343EA023224F0A00343EA6E
:1035E00001118261016210BD30B5046A24F010043B
:1035F00004628469056A24F4407444EA022222F4D5
:1036000070444FF6FF7202EA03322243A02425F0F1
:10361000A00304EA011119438261016230BD000078
:103620002DE9F04104460068016921F44052E16847
:10363000114301612168C86849F20C629043236913
:10364000A268E5691A4363692B431A430243CA60BF
:103650002168486920F44072A06910434861E1691B
:103660006425B1F5004F9748974A21684FF032081A
:103670003FD0914201D081427CD1FDF7C1FE00EBE9
:10368000C00101EB001061688900B0FBF1F6FDF7A5
:10369000B7FE00EBC00101EB001061688900B0FBD0
:1036A000F1F0B0FBF5F06FF01801484306EB800134
:1036B00008EB0110B0FBF5F000F0F006FDF7A0FEFE
:1036C00000EBC00101EB001061688900B0FBF1F074
:1036D000B0FBF5F006EB0016FDF792FE00EBC00123
:1036E00001EB001061688900B0FBF1F7FDF788FE7F
:1036F000D2E0914201D081423DD1FDF781FE00EB45
:10370000C00101EB001061684900B0FBF1F0B0FBB3
:10371000F5F00601FDF774FE00EBC00101EB0010AF
:1037200061684900B0FBF1F7FDF76AFE00EBC001EC
:1037300001EB001061684900B0FBF1F0B0FBF5F05F
:103740006FF01801484307EB800108EBC100B0FBA4
:10375000F5F000F0F80006EB4006FDF751FE00EB37
:10376000C00101EB001061684900B0FBF1F7FDF703
:1037700047FE3CE055E0FDF733FE00EBC00101EBF6
:10378000001061684900B0FBF1F0B0FBF5F00601F4
:10379000FDF726FE00EBC00101EB00106168490057
:1037A000B0FBF1F7FDF71CFE00EBC00101EB0010D0
:1037B00061684900B0FBF1F0B0FBF5F06FF0180163
:1037C000484307EB800108EBC100B0FBF5F000F0C7
:1037D000F80006EB4006FDF703FE00EBC00101EB2D
:1037E000001061684900B0FBF1F7FDF7F9FD00EB4F
:1037F000C00101EB001061684900B0FBF1F0B0FBC3
:10380000F5F06FF01801484307EB800108EBC100A9
:10381000B0FBF5F000F00700216830448860BDE897
:10382000F081FDF7DDFD00EBC00101EB00106168E8
:103830008900B0FBF1F6FDF7D3FD00EBC00101EB11
:10384000001061688900B0FBF1F0B0FBF5F06FF09B
:103850001801484306EB800108EB0110B0FBF5F0BE
:1038600000F0F006FDF7BCFD00EBC00101EB00101D
:1038700061688900B0FBF1F0B0FBF5F006EB0016D3
:10388000FDF7AEFD00EBC00101EB0010616889009F
:10389000B0FBF1F7FDF7A4FD00EBC00101EB001058
:1038A00061688900B0FBF1F0B0FBF5F06FF0180132
:1038B000484307EB800108EB0110B0FBF5F000F086
:1038C0000F00A9E70014014000100140FEE70000CE
:1038D00037B514460846064B6A46214600F04EFCB2
:1038E00004466946002000F0E0FF20463EBD00008F
:1038F000AB4800084100080218BF04200A0E18BF98
:1039000040F001004FF07F4232EA010108BF40F071
:103910000200012808BF05207047000010B510EE16
:10392000100A2DED068BB7EE001A10EE901AB0EECD
:10393000418A0022A0F5000CDFEDFE9A4FF00073E3
:10394000BCF1FE4F4FF07F4403EB410C80F0B4819B
:10395000BCF1804FC0F02082F74901449FEDF73A57
:10396000B1F5005F40F2D48200F58021CB0C03F06A
:103970000F0101EE901AC3F307137F3BA0EBC35076
:10398000B8EEE12A00EE100A1A44DFEDED2AF0EE5F
:10399000411A42EE221AF0EE613A70EE232A30EE1E
:1039A000632A12EE900A00F500606FF30B0001EE3F
:1039B000900A73EEE13A33EE804AC1EE223A22EEEB
:1039C000230A10EE100A00F500606FF30B0000EE02
:1039D000100A00EE612A00EE442A62EE232A70EEFD
:1039E000221A21EEA12ADFEDD73A02EE233A23EE86
:1039F000023A20EE012A22EE811A03EE211A32EE5B
:103A0000010A10EE100A00F500606FF30B0000EEE3
:103A1000100A72EE401A31EE812A9FEDCB1A60EE49
:103A2000011A9FEDCA1A20EE011A9FEDC90A02EE93
:103A3000001A31EE810A10EE100A00F500606FF3F3
:103A40000B0000EE100AC34871EEC01A31EE812A55
:103A5000784400EBC10090ED003AD0ED011A10015E
:103A600001EE100AF8EEC12A32EE211A31EE001AE8
:103A700031EE031A31EE221A11EE100A00F5006041
:103A80006FF30B0009EE100A39EE621A31EE431A99
:103A900031EE400A30EE610A32EE40AA10EE900A92
:103AA000002100F500606FF30B0008EE900A084655
:103AB00070EEE8AAFCF7D4FD29EE280A00F00C010C
:103AC000F0EEC00A10EE900AB0F18B4F0DDD10EE53
:103AD000900AB4EB400F08D310EE100A4FF08B425F
:103AE00062F31E0008EE900A13E069EE2A0A38EE2F
:103AF000AA1A4AEE010A30EE201A11EE100A00F559
:103B000000606FF30B0008EE900A30EE680A70EE6A
:103B1000209A0C20FCF7A4FD38EEA90AB5EEC00AE5
:103B2000F1EE10FA34BFFEEE000AF6EE000A30EEB7
:103B3000800ABDEEC00A10EE100A011100EE101A44
:103B4000F8EEC00A00EE100AB8EEC00A38EEC00A5D
:103B500030EE290ADFED801A9FED801A00EE211A5F
:103B6000DFED7F1A7F4900F00F0040EE011A21EED1
:103B7000800A794401EB800191ED001A7A49794479
:103B800001EB8001D1ED001A784901EE801A7944E9
:103B900001EB8000764990ED000A31EE001AB0EE9C
:103BA000E00A10EE100A884215DA10EE100AB4EBA3
:103BB000400F10D39FED6F0A30EE800ADFED6E0AE2
:103BC00020EE200A68EE010ABDEC068BBCEEC00AAE
:103BD00020EE200A10BD10EE100A6849884243DA30
:103BE00010EE100AB4EB400F3ED3BDEEE00A68EED3
:103BF000010A10EE100A00EBD0725110C90501F154
:103C00007E5100EE101AA0EB6200C00560EE200AA3
:103C100000F17E5000EE100A60EE808A18EE900AE5
:103C2000B4EB400F0FD1022000F0E0F900F0BEF934
:103C300010EE101A18EE100ABDEC068B61F31E0090
:103C400000EE100A10BD18EE900A400011D018EED8
:103C5000900AFFF74FFE042808BF00F0AFF9B0EE5E
:103C6000680ABDEC068B10BDF5EEC00AF1EE10FA45
:103C70000FD2022000F0BAF900F0A0F910EE101AED
:103C800018EE100ABDEC068B61F31E0000EE100A60
:103C900010BD022000F0AAF900F088F910EE101A09
:103CA000B0EE480A10EE100ABDEC068B61F31E0060
:103CB00000EE100A10BD00BFBCF1804F6CD300BFF6
:103CC00000F1FF43B3F1FE4F24D200BFB0EEC00AB3
:103CD00010EE100AC1F3C7537F2B0DDB972BBFF6F5
:103CE0003BAEC3F196034FF0010C0CFA03F3A3F1C2
:103CF000010C1CEA010F08D0012000F077F9BDEC9F
:103D0000068BBDE8104000F049B90B4218BFBFEE6A
:103D1000008A21E643001CBF4FF08073B3EB400FD5
:103D200034D96FF01A02DFED161A20EE210A10EED8
:103D3000100A27E000000000001080C0ABAAAA3ED5
:103D40000000803D7EE24C3E00B03842D49AB8BBC1
:103D50003BAA3842B0410000FC596337C9FF753AAD
:103D60001872313D4E41000082410000F2400000D7
:103D70000000FC420000FE420000004B00004043F7
:103D80000000004D10F0004FA0D1E5E5A0F50003C4
:103D9000B3F1FE4F21D2DFE503EB4103B3F1007F26
:103DA00011D3F5EEC00AF1EE10FA05D1430018BFA9
:103DB000B4EB400F76D883E701F0004141F0FC51AD
:103DC00000EE901A7CE7B3F1807F06D210EE903AB5
:103DD000A3F5000300EE903A72E720F000426FF086
:103DE000FF4C604C02EB0C03A34210D321F00043C4
:103DF0009C44A4450BD3B0F17E5F18BF5FEA410C31
:103E000050D0B2F1FF4F98BFB3F1FF4F05D9BDECD1
:103E1000068BBDE8104000F0BDB8B0F1FF4F0FD0E9
:103E2000C1F3C7527F2A09DB972A11DAC2F1960241
:103E3000012303FA02F2531E0B4205D0002208E0D0
:103E400011F0004F55D128E00A4218BF012200D1DD
:103E5000022210F5000F13D028B3B0F1004F26D086
:103E600010F1814F4FD04FF0FE42B2EB400F94BFA4
:103E700001200020012202EBE171884239D10CE0DF
:103E800011F0004F02D0012A38D032E0012A02BFDF
:103E90009FED350ABDEC068B10BD9FED340ABDECDD
:103EA000068B10BD2FE011F0004F0CD121E0B1F1D5
:103EB000FF4F1ED011F5000F05D011F0004F15D0A7
:103EC0000AB1012A08D0022000F090F8BDEC068B60
:103ED000BDE8104000F054B8022000F087F800F070
:103EE0004FF8BDEC068BB1EE400A10BD0AB1012AB5
:103EF00004D0B0EE690ABDEC068B10BDBDEC068B9C
:103F00009FED1B0A10BDBDEC068BB7EE000A10BD7D
:103F100030EE410AB5EE001A9FED172A00EE413A45
:103F2000B6EE001A60EE001A00EE431A61EEC11AF6
:103F30009FED101A20EE011A20EE020A9FED0F2AC3
:103F400001EE820A71EE001A11EE900A00F500608F
:103F50006FF30B0009EE100A31EE491A31EE00AA98
:103F60009CE50000FFFF3F00000080FF0000807F15
:103F70000000008000B0B841D49A38BB3BAAB841D9
:103F8000DFED030AB7EE001A81EE200A7047000049
:103F90000000000030EE200A70470000DFED020A4A
:103FA00080EEA00A70470000000000009FED020AAA
:103FB00020EE000A70470000000000709FED020A2A
:103FC00020EE000A704700000000001002E008C860
:103FD000121F08C1002AFAD170477047002001E083
:103FE00001C1121F002AFBD170470000014908607F
:103FF00070470000EC0000202DE9FF5F82B0002137
:10400000DDE90430020DDDF840B0034318D044F67A
:104010001050A2F2FF3242431514119801281FD00C
:10402000A5EB0B00401C5FEA000A4FF000064E4F64
:10403000DFF83891B046504615D5CAF1000413E0B8
:10404000119801244AA3012801D16FEA0B010298BB
:10405000119AC0E90031C0E9024206B0BDE8F09F04
:10406000CBF10000DFE704460021404A491842EB4B
:104070000450CDE9001012E0E00707D032463B467D
:1040800040464946FCF7DAF98046894632463B46C7
:1040900010461946FCF7D2F906460F466410002C6C
:1040A000EAD1DDE90401DDE90023BAF1000F06DA07
:1040B000FCF7C4F942464B46FCF7C0F905E0FCF7B3
:1040C0002FFA42464B46FCF72BFA04460E460022D6
:1040D000284BFCF7ADFA03D84FF0FF30014607E05C
:1040E0000022254B20463146FCF701F9FCF787FA00
:1040F000102409E0002C0ADB0A220023FCF77EF8DA
:10410000039B30321A55641E50EA0102F2D1641C3E
:10411000039AC4F111031444119A012A03D0012215
:1041200008430DD10AE0084304D000204FF0110BE2
:10413000119072E7A3EB0B056D1E0DE05B4504DDEE
:104140004FF0000205F1010504E003DA4FF0000230
:10415000A5F10105002AECD002981199C0E90231BD
:10416000C0E9004579E70000000014400000F03F7E
:10417000300000000000F0430000E03F2DE9FF4F59
:1041800095B09B468946064600250FE2252877D143
:1041900000242746F84A0121059400E0044316F85C
:1041A000013F203B01FA03F01042F7D130782A2872
:1041B00011D06FF02F033078A0F13002092A16D801
:1041C000059A44F0020402EB820203EB420210441F
:1041D000761C0590EFE759F8042B0592002A03DAC4
:1041E000504244F40054059044F00204761C3078A8
:1041F0002E2816D116F8010F44F004042A280DD0F9
:104200006FF02F023078A0F13003092B09D807EBAB
:10421000870302EB4303C718761CF3E759F8047BC6
:10422000761C30786C280FD006DC4C2817D0682814
:104230000DD06A2814D104E0742810D07A280FD148
:104240000DE044F400140AE044F4801401E044F466
:1042500040147278824202D104F58014761C761CD8
:10426000307866280BD013DC582877D009DC00287A
:1042700075D04528F6D04628F4D047281AD19DE1BC
:1042800018E0632835D0642879D0652812D195E1EB
:10429000702873D008DC6728F1D069286FD06E28A9
:1042A0000DD06F2806D1B5E073282CD0752875D0B5
:1042B000782874D05A46179990476D1C75E1C4F35D
:1042C0000250022809D003280DD0D9F80010042884
:1042D0000DD00D6009F1040967E1D9F80010EA1763
:1042E000C1E90052F6E7D9F800100D80F2E70D7031
:1042F000F0E719F8041B8DF8001000208DF801007C
:10430000EA46012003E059F804AB4FF0FF306107A3
:104310004FF0000102D40DE008F101018846B942D6
:104320000FDA8045F8DB1AF808100029F4D108E00C
:1043300008F1010188468142FADB1AF808100029C9
:10434000F6D105985B46A0EB080721463846179A38
:1043500000F094FA284400EB080507E04DE029E15D
:104360000DE01AF8010B5A4617999047B8F1010869
:10437000F7D25B4621463846179A13E142E00A22FB
:104380000092C4F302524FF0000A022A08D059F8F2
:1043900004CB032A4FEAEC710AD00DE029E02AE0B1
:1043A00009F1070121F00702F2E802C1914609E094
:1043B0000FFA8CFC4FEAEC71042A03D14FFA8CFC03
:1043C0004FEAEC71002907DA0A460021DCF1000C03
:1043D00061EB02012D2202E0220504D52B228DF88B
:1043E0000420012203E0E20701D02022F7E79046F3
:1043F00059E00A2102E010220DE010214FF0000ADE
:1044000000910BE010224FF0000A44F0040408274A
:10441000009203E008224FF0000A0092C4F3025217
:10442000022A05D059F804CB0021032A08D009E05C
:1044300009F1070121F00702F2E802C1914605E007
:104440001FFA8CFC042A01D10CF0FF0C4FF000087D
:10445000220728D5702806D0009B83F0100353EA6A
:104460000A0305D00EE040228DF80420012208E066
:104470005CEA010206D030228DF804208DF8050098
:1044800002229046009B83F0080353EA0A030AD1F4
:104490005CEA010201D1620705D530228DF80420C3
:1044A0004FF001087F1E582804D034A003900EA8B6
:1044B00002900DE036A0F9E753466046009AFBF7FC
:1044C0009DFE84460398825C0298401E0290027012
:1044D0005CEA0100F0D1029806A9081A00F1200A4E
:1044E000600702D524F4803400E00127574502DD3F
:1044F000A7EB0A0000E0002000EB0A0100900598FD
:104500004144401A0590E00306D45B462146179AC1
:10451000059800F0B3F90544002706E001A85A46C3
:10452000C05D179990476D1C7F1C4745F6DBE00383
:104530000CD55B462146179A059800F09FF9054473
:1045400004E030205A46179990476D1C0099481E88
:1045500000900029F5DC08E0029802995A4600789C
:10456000491C0291179990476D1CBAF10001AAF1FC
:10457000010AF1DC65E10000092801003031323325
:10458000343536373839616263646566000000008F
:104590003031323334353637383941424344454679
:1045A0000000000000F058F90544761C307800281F
:1045B0007FF4ECAD19B02846BDE8F08F620700D457
:1045C000062709F1070222F0070CFCE80223E14666
:1045D00003F000485FEA080C02D00FF2702C0DE0E7
:1045E0005FEA045C02D50FF2682C07E05FEAC47C46
:1045F00002D00FF2602C01E0AFF2700C4FF0FF38E8
:1046000023F00043CDF850C065280CD006DC4528C7
:1046100009D046281DD047283DD13DE0662818D056
:1046200067287ED138E00021112F01DB112000E046
:10463000781CCDE9000106A90EA8FFF7DDFCDDE935
:104640000F010E9A03910021009207F1010A0491D3
:104650004DE04FF000400097CDE9011006A90EA8EB
:10466000FFF7CAFCDDE90F0203920E9B11990022AD
:10467000DDF80CA00093049211B9791C00EB010A3B
:10468000B7EB0A0004D4C0F1FF3007F1010A04902F
:10469000AAEB0700019044E0012F00DA0127002176
:1046A000112F01DD112000E03846CDE9000106A9F7
:1046B0000EA8FFF7A1FCDDE90F010E9A039100217E
:1046C00004910092BA4621070CD40399514500DAAF
:1046D0008A46BAF1010F05DD009AAAF10101515C89
:1046E000302908D0B84202DA10F1040F06DA0121AD
:1046F000CDE9011015E0AAF10101E9E7002805DC88
:10470000049901440491AAEB000102E0411C5145C7
:1047100000DD8A460499401A401C01904FF0004089
:104720000290200704D40198504501DBCDF80480A5
:1047300000208DF84F0002980DF14F07B0F1004FA7
:1047400025D02B200E9002984FF0020800280CDA9A
:10475000404202902D200E9007E00A210298FBF7BC
:1047600091FD3031029007F8011DB8F10001A8F168
:104770000108F2DC02980028EFD1791E0E9808702B
:10478000307800F0200040F0450007F8020D12A834
:10479000C01B00F107081498007800B1012000EB5D
:1047A0000A01019801EBE07105984144401A401E4E
:1047B0000590E00306D45B462146179A059800F061
:1047C0005DF805441498007818B15A461799904737
:1047D0006D1CE00324D55B462146179A059800F02E
:1047E0004DF805441CE00498002807DBDDE90301CF
:1047F000884203DD0098405C179901E0179930204A
:104800005A469047049805F10105401C0490019810
:10481000401E019004D12E205A46179990476D1CD6
:10482000BAF10001AAF1010ADDDC05E017F8010B7D
:104830005A46179990476D1CB8F10001A8F101087C
:10484000F4DC5B462146179A0598ABE62D00000084
:104850002B000000200000002DE9F0410446002557
:104860001E461746880404D405E039462020B04788
:104870006D1C641EF9D52846BDE8F0812DE9F04194
:10488000044600251E469046C80301D5302700E0A7
:104890002027880404D505E041463846B0476D1C02
:1048A000641EF9D52846BDE8F0810A68531C0B60E8
:1048B0001070704701E000BF401E0028FBD1704718
:1048C00070B50124A51E204600F0FCFA0A20FCF772
:1048D00033FB00F04BF968B1A400241F01E0401045
:1048E000641CC107FBD000BF00F040F90028FBD1D9
:1048F000204670BD641C032CE5DB284670BD00001B
:1049000008B5FCF715FCFEF723FCFEF791FAFEF75D
:1049100071FAFEF7DDFBFEF74FFBFEF7F7FAFEF745
:1049200041FAFEF79BFBFDF7B1FB6E48FDF748F837
:1049300002236D4A08216D48FDF77EF96C48FDF7AA
:104940003FF8FBF7A1FF684C6A494C3C206B00F034
:104950007DFE00254FF4FA6A009553461021664803
:10496000226BFCF7F3F8634E04F14407A6F57A587E
:10497000A6F5FA59706840B1012806D0022804D083
:1049800005285FD0042875D08AE02078012841D11D
:10499000257097ED000ABDEEC00A84ED0D0A00F007
:1049A0000DF9E06868BB97ED000AB5EEC00AF1EEBC
:1049B00010FA26DBD4ED0D0AF8EEE00AB4EE600A38
:1049C000F1EE10FA1DD0306800F09CF870680128F4
:1049D00020D0E5614749E06A00F038FE2079C8B987
:1049E000D4E90B20C4E90B0253461021424800953C
:1049F000FCF7ACF83F49E06A00F028FE0120207186
:104A000008E097ED000AB5EEC00AF1EE10FA01D207
:104A1000E56125716078012842D16570706820B128
:104A2000012806D002283BD108E0344800F070FD90
:104A300036E03248001F00F0B1FD31E02F4800F0B1
:104A4000D1FD2DE0A07801282AD1A5702C48356031
:104A5000A16B405600EE100A0420B8EEC00A00F028
:104A600051F8E561A06B401CA063B0F5987F16D0AB
:104A700016E0FFE7A078012812D1A5702048A16BAD
:104A80008038405600EE100A0420B8EEC00A00F04C
:104A900039F8E561A06B401CA063802800D1A563B4
:104AA000E07801287FF466AFE16A414502D1C4E9AC
:104AB0000B9801E0C4E90B8997ED000AB5EEC00A36
:104AC000F1EE10FA01DA207950B100955346102129
:104AD0000948226BFCF73AF80649E06A00F0B6FD97
:104AE000E57047E7B84100205C0000207C410020D1
:104AF00040410020C0400020CC400020CC5A00089B
:104B00006475000870B5164CB5EEC00A04F1540186
:104B1000A062F1EE10FA51F820501BDBF2EE020A0F
:104B2000B2EE081A30EE600AC0EE010AB0EE000ADA
:104B3000FEF7F4FEDFED0B0A20EE200A84ED050AF5
:104B4000D5E900010844D5E9021211440844401C8B
:104B5000A06170BD9FED040A84ED050A70BD0000E0
:104B6000100000200000DC43000000002DE9F041AF
:104B7000104D002440212846FCF7C2FA00B9012458
:104B80000D4F4FF4007631463846FCF7B9FA00B9BC
:104B9000A41C4FF480713846FCF7B2FA00B9241D0A
:104BA00031462846FCF7ACFA00B908342046BDE887
:104BB000F0810000000802400004024070B53A484D
:104BC0003A4CA0F14C02D0E90035D1689FED350A8E
:104BD00004EB81009D4201D9EB1A02E0C3F580335A
:104BE0002B4400EE903A9FED321A491CF8EE600A11
:104BF0000529C0ED000AC0EE811AC0ED001AD1608F
:104C00004CDB2948F0EE400A10380023C0ED010AC1
:104C1000284EB7EE001A10E004EB8305D5ED000A2C
:104C200010EE905AB54207DAD0ED011A30EE010AC3
:104C300071EEA00AC0ED010A5B1C8B42ECDBD0EDEB
:104C4000010AF5EEC00AF1EE10FA03D080EE801AE8
:104C500080ED011A0021D160134C90EC020A083C4F
:104C600030EE600A20EE000A82ED040A10EE101AFF
:104C7000114A914213DDC0ED000A104800F020F8FF
:104C800094EC020AB4EE600AF1EE10FA06D084ED5C
:104C9000010ABFEE000A00BF84ED000A70BD94ED6A
:104CA000010AF9E7000000005C000020F00100208C
:104CB000000068420000C84300002040C0400020BF
:104CC00010B5B1EE041AF2EE001ADFED780A784959
:104CD000426891ED000A0831022A1BD0D2B110EED1
:104CE000100A744A90427DDD10EE100AD243F3EEB2
:104CF000080A1044704A904274D8B0EE0C1A30EE94
:104D0000411ADFED6E1A81EE210A20EE200A81EDB4
:104D1000000AC8E08468BFEE002A54BBB5EEC00AA2
:104D2000F1EE10FA07DD10EE100A654A904202DA41
:104D3000C1ED000A10BD012002EE900AF8EEE22A51
:104D400062EE812AB4EEE20AF1EE10FA12DB421CA6
:104D500002EE902AF8EEE22A62EE812AB4EEE20A2E
:104D6000F1EE10FA06D201EE100AB8EEC11A81ED8A
:104D7000001A04E018287CD0401C1928DCDBF0EE77
:104D8000002A022C44D10020B0EE601A5FF0070226
:104D900003EE100AB8EEC33A23EE213AB4EEC30A8A
:104DA000F1EE10FA0EDB431C03EE103AB8EEC33AF4
:104DB00023EE213AB4EEC30AF1EE10FA02D281EDED
:104DC000001A10BD90FBF2F302FB1303022B06DB6B
:104DD00090FBF2F302FB1303DB1E032B03D231EE35
:104DE000221A10E05BE090FBF2F302FB1303022BAC
:104DF00005D090FBF2F302FB1303062B03D1B7EEB1
:104E0000003A31EE031A0E2846D0401C0F28BFDBB3
:104E1000012CD6D10020052201EE100AB8EEC11AED
:104E200021EE211AB4EEC10AF1EE10FA0CDB431C9C
:104E300001EE103AB8EEC11A21EE211AB4EEC10A01
:104E4000F1EE10FAFFF474AF90FBF2F302FB1303E0
:104E5000022B14DB90FBF2F302FB1303032B0ED0A7
:104E600090FBF2F302FB1303022B0BD090FBF2F347
:104E700000E011E002FB1303042B03D006E070EE08
:104E8000A20A03E0B0EE081A70EE810A0B2803D0E4
:104E9000401C0C28C0DB10BD81ED002A10BDC1ED07
:104EA000000A91ED000A81ED010A10BD000000002A
:104EB0004C0000206666664099199A020000FA428A
:104EC0000000A04070B504460C480D4E8514012C1E
:104ED00006D001222021FCF718F9022C0BD003E0A8
:104EE00000222021FCF711F9012229463046BDE8B5
:104EF0007040FCF70AB90022F7E700000008024002
:104F0000000002407CB506460420FDF7D1FE0020DB
:104F1000FDF70EFC05212D20FDF796FEC3A071685C
:104F2000FDF758FD306800244FF6FF7530B10128B9
:104F30007DD0022879D0032878D10DE128213720AF
:104F4000FDF782FEBCA0FDF745FD7823C422AF210A
:104F500014200095FDF74CFB78231622AF21142076
:104F60000094FDF7A1FA78231622AF212A2000949D
:104F7000FDF79AFA78231622AF2140200094FDF71E
:104F800093FA78231622AF2156200094FDF78CFA6D
:104F900078231622AF216C200094FDF785FA782340
:104FA0001622AF2182200094FDF77EFA7823162284
:104FB000AF2198200094FDF777FA78231622AF21CD
:104FC000AE200094FDF770FA7823C422AF2114209C
:104FD0000094FDF769FA41230E22AF2122200094AC
:104FE000FDF706FB41230E22AF214E200094FDF772
:104FF000FFFA41230E22AF2164200094FDF7F8FA56
:1050000041230E22AF217A200094FDF7F1FA4123CB
:105010000E22AF21A6200094FDF7EAFA41230E22CA
:10502000AF21BC200094C2E001E037E0C1E02821BC
:105030003720FDF709FE82A0FDF7CCFC1420CDE956
:1050400000052323AF22C8211E20FDF73BFB2323AD
:10505000A522C82132200095FDF7CAFA0F23142299
:10506000D22137200094FDF7C3FA00230522D8216E
:105070006420FDF73FFA00230522D8218220FDF7A6
:1050800039FA00230522D821A020FDF733FA0023A6
:105090000522D821BE20FDF72DFA8AE028212D20F7
:1050A000FDF7D2FD68A0FDF795FC14235F22D72100
:1050B00023200095FDF79CFA32235522C8216E204B
:1050C0000095FDF795FA00232D22A7219820FDF7E2
:1050D00011FA00232D224FF48C719820FDF70AFA63
:1050E0000F230522C82128200095FDF781FA0F2300
:1050F0000522EB2128200095FDF77AFA0F230522DF
:10510000C82134200095FDF773FA0F230522EB2107
:1051100034200095FDF76CFA19230822D421B4201D
:105120000094FDF765FA00238C22DC212820FDF78E
:105130006FF800238C22DF212820FDF769F8002377
:105140008C22E2212820FDF763F800238C22E52140
:105150002820FDF75DF82CE028211920FDF774FDCB
:105160003BA0FDF737FC7823C422AF211420009424
:10517000FDF73EFA0A240F236422C8211E20CDE940
:105180000045FDF79FFA0F236422FF211E20CDE981
:105190000045FDF797FA46230F22C8217820009595
:1051A000FDF726FA0F235022E12178200095FDF724
:1051B0001FFA7068B0B1012820D0022825D1CD2374
:1051C000F0226E2100200095FDF76EF9B06818B34B
:1051D00001281BD0022818D14B211920FDF734FDDE
:1051E0001EA01EE04B210A20FDF72EFD1EA0FDF79C
:1051F000F1FBCD23F0226E21009503E0F0231A4647
:10520000502100950020FDF74FF97CBD4B21002077
:10521000FDF71AFD17A004E04B210A20FDF714FD4D
:1052200011A0BDE87C40FDF7D5BB00004D6F646563
:1052300020256420000000005069616E6F000000AE
:10524000466C75746500000056696F6C6F6E0000E7
:105250004469617061736F6E00000000446961749D
:105260006F6E6963000000004368726F6D6174695E
:105270006300000050656E7461746F6E69630000B6
:1052800038B50020FDF754FA05212D20FDF7DCFC90
:105290000220FDF70DFD1EA0FDF79CFB192141200A
:1052A000FDF7D2FC1EA0FDF795FB4FF6FF745A23C5
:1052B000F022322100200094FDF7F6F85A23F02264
:1052C0008C2100200094FDF7EFF85A23F022E6210C
:1052D00000200094FDF7E8F80420FDF7E9FC5021D8
:1052E0000A20FDF7B1FC11A0FDF774FBAA210020F4
:1052F000FDF7AAFC10A0FDF76DFB4FF48271192099
:10530000FDF7A2FCBDE838400EA0FDF763BB00002E
:1053100053656C656374696F6E6E657200000000A2
:105320006C612067616D6D65000000004368726FFD
:105330006D6174696300000050656E7461746F6E16
:1053400069630000446961746F6E69630000000066
:1053500038B50020FDF7ECF905212D20FDF774FC90
:105360000220FDF7A5FC25A0FDF734FB19212D2017
:10537000FDF76AFC25A0FDF72DFB4FF6FF744323D4
:10538000F022322100200094FDF78EF84323F02212
:10539000752100200094FDF787F84323F022B821FF
:1053A00000200094FDF780F84323F022FB21002029
:1053B0000094FDF779F80420FDF77AFC4B213C209E
:1053C000FDF742FC15A0FDF705FB8E213C20FDF703
:1053D0003BFC14A0FDF7FEFAD1213220FDF734FC8E
:1053E00012A0FDF7F7FA4FF48A711E20FDF72CFC8E
:1053F000BDE838400FA0FDF7EDBA000053656C65BD
:105400006374696F6E6E6572000000006C27696ED0
:10541000737472756D656E74000000005069616E82
:105420006F000000466C75746500000056696F6C73
:105430006F6E00004469617061736F6E0000000060
:1054400038B50020FDF774F905210020FDF7FCFBBD
:105450000220FDF72DFC1EA0FDF7BCFA1921232028
:10546000FDF7F2FB20A0FDF7B5FA4FF6FF745A23C3
:10547000F022322100200094FDF716F85A23F02282
:105480008C2100200094FDF70FF85A23F022E6212A
:1054900000200094FDF708F80420FDF709FC5021D6
:1054A0003220FDF7D1FB14A0FDF794FAAA21322097
:1054B000FDF7CAFB12A0FDF78DFA4FF4827132207E
:1054C000FDF7C2FBBDE838400FA0FDF783BA00002E
:1054D00053656C656374696F6E6E6572206C6520D0
:1054E0006D6F6465000000006465206C27696E7450
:1054F00072756D656E7400004D6F6465203000003C
:105500004D6F6465203100004D6F646520320000EE
:10551000F8B5044600200090B4F90210B4F9000078
:105520003223DA22FDF764F861882088FDF78CFBCE
:10553000154D95ED000ABDEEC00A10EE100A0028C8
:1055400012DB124E002400BF95ED000ABDEEC00A2A
:1055500010EE100A00EB40002044315C0CA0FDF777
:1055600039FA641C032CEFDB074808380068FAF7A7
:1055700076FE01B041EC100BBDE8F04053EC102B6F
:1055800004A0FDF727BA000054000020D05A0008FC
:1055900025630000252E32660000000038B5044661
:1055A00000200090B4F90210B4F900003223B922AF
:1055B000FDF71EF861882088FDF746FB0648406924
:1055C000FAF74DFE01B041EC100BBDE8304053EC52
:1055D000102B02A0FDF7FEB910000020252E326628
:1055E00020000000F8B5044600200090B4F9021035
:1055F000B4F900003223B922FCF7FAFF6188208851
:10560000FDF722FB0E4D95ED000ABDEEC00A10EE2F
:10561000100A002812DB0B4E002400BF95ED000A93
:10562000BDEEC00A10EE100A00EB40002044315CD1
:1056300005A0FDF7CFF9641C032CEFDBF8BD0000DB
:1056400054000020D05A0008256300002DE9F04FD7
:105650004549A1F15402976A92ED051A51F82710B5
:1056600091E84810D1F80CE09FED400AC1EE000A25
:10567000DFED3F2AD16992ED080ADFF8F8A0002596
:10568000B0EE001A02F168094FF4FA6B20EEA22A7C
:10569000D2ED090A71B1002910DD99420EDC01EE4C
:1056A000903AF1EE003AB8EEE13AC3EE831A31EEE9
:1056B000800A1FE09FED300A0121EEE75C1CA14249
:1056C00005DB9C198C4202DB01EE906A1EE09C19FE
:1056D00004F1010888450FDC04EB0C0888450BDB5E
:1056E000DFF89880B0EE410AD8F80480B8F1010FD5
:1056F00000D1611C491C10E0644404F10108884594
:105700000BDC74448C4208DB01EE90EAB8EEE13A1F
:10571000C1EE031A30EE610AECE7FDEEE01A59F82B
:10572000278070EE820A11EE904A38F8144001EE9C
:10573000904AF8EE611A61EE801AFCEEE11A11EE61
:10574000904A40F8254010EE904A544501DB70EE37
:10575000E20A6D1C5D459DDBC2ED090A82ED080A77
:10576000D161BDE8F08F00006400002000401C47BC
:1057700000002A4300002A4300000000C04000202F
:1057800000000000003E5B4F5B3E3E6B4F6B3E1CDB
:105790003E7C3E1C183C7E3C181C577D571C1C5EF2
:1057A0007F5E1C00183C1800FFE7C3E7FF001824C9
:1057B0001800FFE7DBE7FF30483A060E2629792973
:1057C00026407F050507407F05253F5A3CE73C5AA8
:1057D0007F3E1C1C08081C1C3E7F14227F22145F85
:1057E0005F005F5F06097F017F006689956A6060E0
:1057F00060606094A2FFA29408047E040810207EDA
:10580000201008082A1C08081C2A08081E1010105E
:10581000100C1E0C1E0C30383E3830060E3E0E06A4
:10582000000000000000005F0000000700070014F7
:105830007F147F14242A7F2A1223130864623649B6
:105840005620500008070300001C2241000041229E
:105850001C002A1C7F1C2A08083E080800807030A3
:105860000008080808080000606000201008040212
:105870003E5149453E00427F400072494949462118
:1058800041494D331814127F1027454545393C4A8C
:1058900049493141211109073649494936464949A3
:1058A000291E0000140000004034000000081422EB
:1058B0004114141414140041221408020159090659
:1058C0003E415D594E7C1211127C7F494949363E5A
:1058D000414141227F4141413E7F494949417F0940
:1058E0000909013E414151737F0808087F00417F4B
:1058F00041002040413F017F081422417F40404049
:10590000407F021C027F7F0408107F3E4141413EE0
:105910007F090909063E4151215E7F091929462662
:105920004949493203017F01033F4040403F1F2066
:1059300040201F3F4038403F63140814630304783D
:1059400004036159494D43007F414141020408105D
:1059500020004141417F0402010204404040404098
:10596000000307080020545478407F284444383806
:1059700044444428384444287F3854545418000878
:105980007E090218A4A49C787F0804047800447D52
:1059900040002040403D007F1028440000417F40EF
:1059A000007C047804787C08040478384444443843
:1059B000FC1824241818242418FC7C080404084823
:1059C0005454542404043F44243C4040207C1C2074
:1059D00040201C3C4030403C44281028444C9090CF
:1059E000907C4464544C4400083641000000770029
:1059F000000041360800020102040207050700000A
:105A0000E500008000000100010000010200000725
:105A1000030030100400000008000202090000002A
:105A20000A0000000C0000000D0000000F00000044
:105A30001000000011000000120000001300000020
:105A40001000B017110037001200380113000017C2
:105A500029000D002000000021000000300001009E
:105A60003100060632000403330002023400020251
:105A70003500030136001D0137000404380004041A
:105A8000390004043C0000073D001F0A50000000DC
:105A90005100EF005200000053003F01600000A7DA
:105AA000610001006A0000009000100092000000F8
:105AB000930003009500010197000000980000008A
:105AC00007002100070033010F0064000F00780079
:105AD0004334204334234434204434234534204683
